:020000020000FC
:1000000000E215E28827992744270F921F922F9329
:100010003F936F937F93202F2F70312F3F70022ECD
:10002000030E602D25F46A5F41E00C941E006A30D7
:1000300020F06A5F41E00C941E0000006F70962B68
:10004000202F22952F70312F32953F70022E030EF4
:10005000040E702D25F47A5F81E00C9436007A301E
:1000600020F07A5F81E00C94360000007F7072957A
:10007000972B7F916F913F912F911F900F90FFCF02
:00000001FF
